:020000040000fa
:080000000002040000000000f2
:020000040000fa
:04000800a80200004a
:020000040000fa
:04000c00a802000046
:020000040000fa
:04001000a802000042
:020000040000fa
:04001400a80200003e
:020000040000fa
:04001800a80200003a
:020000040000fa
:04001c00a802000036
:020000040000fa
:04002000a802000032
:020000040000fa
:04002400a80200002e
:020000040000fa
:04002800a80200002a
:020000040000fa
:04002c00a802000026
:020000040000fa
:04003000a802000022
:020000040000fa
:04003400a80200001e
:020000040000fa
:04003800a80200001a
:020000040000fa
:04003c00a802000016
:020000040000fa
:04004000a802000012
:020000040000fa
:04004400a80200000e
:020000040000fa
:04004800a80200000a
:020000040000fa
:04004c00a802000006
:020000040000fa
:04005000a802000002
:020000040000fa
:04005400a8020000fe
:020000040000fa
:04005800a8020000fa
:020000040000fa
:04005c00a8020000f6
:020000040000fa
:04006000a8020000f2
:020000040000fa
:04006400a8020000ee
:020000040000fa
:04006800a8020000ea
:020000040000fa
:04006c00a8020000e6
:020000040000fa
:04007000a8020000e2
:020000040000fa
:04007400a8020000de
:020000040000fa
:04007800a4040000dc
:020000040000fa
:04007c00a8020000d6
:020000040000fa
:04008000a8020000d2
:020000040000fa
:04008400a8020000ce
:020000040000fa
:04008800a8020000ca
:020000040000fa
:04008c00a8020000c6
:020000040000fa
:04009000a8020000c2
:020000040000fa
:04009400a8020000be
:020000040000fa
:04009800a8020000ba
:020000040000fa
:04009c00b4040000a8
:020000040000fa
:0400a000a8020000b2
:020000040000fa
:0400a400a8020000ae
:020000040000fa
:0400a800a8020000aa
:020000040000fa
:0400ac00a8020000a6
:020000040000fa
:0400b000a8020000a2
:020000040000fa
:0400b400a80200009e
:020000040000fa
:0400b800a80200009a
:020000040000fa
:0400bc00a802000096
:020000040000fa
:0400c000a802000092
:020000040000fa
:0400c400a80200008e
:020000040000fa
:0400c800a80200008a
:020000040000fa
:0400cc00a802000086
:020000040000fa
:0400d000a802000082
:020000040000fa
:0400d400a80200007e
:020000040000fa
:0400d800a80200007a
:020000040000fa
:0400dc00a802000076
:020000040000fa
:0400e000a802000072
:020000040000fa
:0400e400a80200006e
:020000040000fa
:0400e800a80200006a
:020000040000fa
:0400ec00a802000066
:020000040000fa
:0400f000a802000062
:020000040000fa
:0400f400a80200005e
:020000040000fa
:0400f800a80200005a
:020000040000fa
:0400fc00a802000056
:020000040000fa
:04010000a802000051
:020000040000fa
:04010400a80200004d
:020000040000fa
:04010800a802000049
:020000040000fa
:04010c00a802000045
:020000040000fa
:04011000a802000041
:020000040000fa
:04011400a80200003d
:020000040000fa
:04011800a802000039
:020000040000fa
:04011c00a802000035
:020000040000fa
:04012000a802000031
:020000040000fa
:04012400a80200002d
:020000040000fa
:04012800a802000029
:020000040000fa
:04012c00a802000025
:020000040000fa
:04013000a802000021
:020000040000fa
:04013400a80200001d
:020000040000fa
:04013800a802000019
:020000040000fa
:04013c00a802000015
:020000040000fa
:04014000a802000011
:020000040000fa
:04014400a80200000d
:020000040000fa
:04014800a802000009
:020000040000fa
:04014c00a802000005
:020000040000fa
:04015000a802000001
:020000040000fa
:04015400a8020000fd
:020000040000fa
:04015800a8020000f9
:020000040000fa
:04015c00a8020000f5
:020000040000fa
:04016000a8020000f1
:020000040000fa
:04016400a8020000ed
:020000040000fa
:04016800a8020000e9
:020000040000fa
:04016c00a8020000e5
:020000040000fa
:04017000a8020000e1
:020000040000fa
:04017400a8020000dd
:020000040000fa
:04017800a8020000d9
:020000040000fa
:04017c00a8020000d5
:020000040000fa
:04018000a8020000d1
:020000040000fa
:04018400a8020000cd
:020000040000fa
:04018800a8020000c9
:020000040000fa
:04018c00a8020000c5
:020000040000fa
:04019000a8020000c1
:020000040000fa
:04019400a8020000bd
:020000040000fa
:04019800a8020000b9
:020000040000fa
:04019c00a8020000b5
:020000040000fa
:0401a000a8020000b1
:020000040000fa
:0401a400a8020000ad
:020000040000fa
:0401a800a8020000a9
:020000040000fa
:0401ac00a8020000a5
:020000040000fa
:0401b000a8020000a1
:020000040000fa
:0401b400a80200009d
:020000040000fa
:0401b800a802000099
:020000040000fa
:0401bc00a802000095
:020000040000fa
:0401c000a802000091
:020000040000fa
:0401c400a80200008d
:020000040000fa
:0401c800a802000089
:020000040000fa
:0401cc00a802000085
:020000040000fa
:0401d000a802000081
:020000040000fa
:0401d400a80200007d
:020000040000fa
:0401d800a802000079
:020000040000fa
:0401dc00a802000075
:020000040000fa
:0401e000a802000071
:020000040000fa
:0401e4009a04000079
:020000040000fa
:0401e800a802000069
:020000040000fa
:0401ec00a802000065
:020000040000fa
:0401f000a802000061
:020000040000fa
:0401f400a80200005d
:020000040000fa
:0401f800a802000059
:020000040000fa
:04020800a802000048
:020000040000fa
:04020c00a802000044
:020000040000fa
:04021000a802000040
:020000040000fa
:04021400a80200003c
:020000040000fa
:04021800a802000038
:020000040000fa
:04021c00a802000034
:020000040000fa
:04022000a802000030
:020000040000fa
:04022400a80200002c
:020000040000fa
:04022800a802000028
:020000040000fa
:04022c00a802000024
:020000040000fa
:04023000a802000020
:020000040000fa
:04023400a80200001c
:020000040000fa
:04023800a802000018
:020000040000fa
:04023c00a802000014
:020000040000fa
:04024000a802000010
:020000040000fa
:04024400a80200000c
:020000040000fa
:04024800a802000008
:020000040000fa
:04024c00a802000004
:020000040000fa
:04025000a802000000
:020000040000fa
:04025400a8020000fc
:020000040000fa
:04025800a8020000f8
:020000040000fa
:04025c00a8020000f4
:020000040000fa
:04026000a8020000f0
:020000040000fa
:04026400a8020000ec
:020000040000fa
:04026800a8020000e8
:020000040000fa
:04026c00a8020000e4
:020000040000fa
:04027000a8020000e0
:020000040000fa
:04027400a8020000dc
:020000040000fa
:04027800a8020000d8
:020000040000fa
:04027c00a8020000d4
:020000040000fa
:04028000a8020000d0
:020000040000fa
:04028400a8020000cc
:020000040000fa
:04028800a8020000c8
:020000040000fa
:04028c00a8020000c4
:020000040000fa
:04029000a8020000c0
:020000040000fa
:04029400a8020000bc
:020000040000fa
:04029800a8020000b8
:020000040000fa
:04029c00a8020000b4
:020000040000fa
:0402a000a8020000b0
:020000040000fa
:0402a400a8020000ac
:020000040000fa
:0402a800a8020000a8
:020000040000fa
:0402ac00a8020000a4
:020000040000fa
:0402b000a8020000a0
:020000040000fa
:0402b400a80200009c
:020000040000fa
:0402b800a802000098
:020000040000fa
:0402bc00a802000094
:020000040000fa
:0402c000a802000090
:020000040000fa
:0402c400a80200008c
:020000040000fa
:0402c800a802000088
:020000040000fa
:0402cc00a802000084
:020000040000fa
:0402d000a802000080
:020000040000fa
:0402d400a80200007c
:020000040000fa
:0402d800a802000078
:020000040000fa
:0402dc00a802000074
:020000040000fa
:0402e000a802000070
:020000040000fa
:0402e400a80200006c
:020000040000fa
:0402e800a802000068
:020000040000fa
:0402ec00a802000064
:020000040000fa
:0402f000a802000060
:020000040000fa
:0402f400a80200005c
:020000040000fa
:0402f800a802000058
:020000040000fa
:0402fc00a802000054
:020000040000fa
:04030000a80200004f
:020000040000fa
:04030400a80200004b
:020000040000fa
:04030800a802000047
:020000040000fa
:04030c00a802000043
:020000040000fa
:04031000a80200003f
:020000040000fa
:04031400a80200003b
:020000040000fa
:04031800a802000037
:020000040000fa
:04031c00a802000033
:020000040000fa
:04032000a80200002f
:020000040000fa
:04032400a80200002b
:020000040000fa
:04032800a802000027
:020000040000fa
:04032c00a802000023
:020000040000fa
:04033000a80200001f
:020000040000fa
:04033400a80200001b
:020000040000fa
:04033800a802000017
:020000040000fa
:04033c00a802000013
:020000040000fa
:04034000a80200000f
:020000040000fa
:04034400a80200000b
:020000040000fa
:04034800a802000007
:020000040000fa
:04034c00a802000003
:020000040000fa
:04035000a8020000ff
:020000040000fa
:04035400a8020000fb
:020000040000fa
:04035800a8020000f7
:020000040000fa
:04035c00a8020000f3
:020000040000fa
:04036000a8020000ef
:020000040000fa
:04036400a8020000eb
:020000040000fa
:04036800a8020000e7
:020000040000fa
:04036c00a8020000e3
:020000040000fa
:04037000a8020000df
:020000040000fa
:04037400a8020000db
:020000040000fa
:04037800a8020000d7
:020000040000fa
:04037c00a8020000d3
:020000040000fa
:04038000a8020000cf
:020000040000fa
:04038400a8020000cb
:020000040000fa
:04038800a8020000c7
:020000040000fa
:04038c00a8020000c3
:020000040000fa
:04039000a8020000bf
:020000040000fa
:04039400a8020000bb
:020000040000fa
:04039800a8020000b7
:020000040000fa
:04039c00a8020000b3
:020000040000fa
:0403a000a8020000af
:020000040000fa
:0403a400a8020000ab
:020000040000fa
:0403a800a8020000a7
:020000040000fa
:0403ac00a8020000a3
:020000040000fa
:0403b000a80200009f
:020000040000fa
:0403b400a80200009b
:020000040000fa
:0403b800a802000097
:020000040000fa
:0403bc00a802000093
:020000040000fa
:0403c000a80200008f
:020000040000fa
:0403c400a80200008b
:020000040000fa
:0403c800a802000087
:020000040000fa
:0403cc00a802000083
:020000040000fa
:0403d000a80200007f
:020000040000fa
:0403d400a80200007b
:020000040000fa
:0403d800a802000077
:020000040000fa
:0403dc00a802000073
:020000040000fa
:0403e000a80200006f
:020000040000fa
:0403e400a80200006b
:020000040000fa
:0403e800a802000067
:020000040000fa
:0403ec00a802000063
:020000040000fa
:0403f000a80200005f
:020000040000fa
:0403f400a80200005b
:020000040000fa
:0403f800a802000057
:020000040000fa
:100400000f8020000eff20000e0188000000000079
:10041000000020000000e000020032000001200087
:10042000200288000c000700c04b200001002000c3
:1004300011000700000020000000e0000200320070
:1004400000000200000000001e0402000000000086
:100450000040da000000fe004440a9000000200037
:100460000000e0000300320000002000a00188002e
:100470004440a80000000600910188008000780038
:100480000000eb0015003700e280400032a0b4000d
:100490009101ba00e280400032a0b4009102ba009b
:1004a000e280400032a0b4000002eb00472bde00e7
:1004b000f507b200602ce10004003a000059eb009f
:1004c0008301e900fdff3e00040037006128e100e0
:1004d000010032000082eb000b00070011c3ba00dc
:1004e0001101ba000604e00003003a000200e00037
:1004f000e5ff3a0000000600f607b200960188000a
:1005000082007800f5ff37003159ba008301e90015
:100510000c0032002159ba008301e90008003200c2
:100520000400e00003003a00e280400032a0b40082
:10053000f5ff370011d9ba008301e900faff3a004c
:100540008100e800e180400032a0b4000000060015
:080550000040da000000fe008b
:020000040000fa
:100558000000fa0040a7a90090022000303a880065
:10056800203a80000060a1000070a100203a8800b5
:10057800213a800000fe2f0000806000203a8800a9
:100588001200200080072000a109200033742000f9
:10059800804978008149780082497800120020005b
:1005a8006004200071052000237420008049780031
:1005b800814978008249780000000000113a8000e3
:1005c800000027008080600000002100808f50001c
:1005d800faff3a0000000000113a800000022000f3
:1005e800008060000000e000fbff320050c7a80058
:1005f80051e7a80051a7a800803a80000080a00019
:100608000090a00000a0a000803a88000000000030
:10061800813a800000002400008060000000e000b3
:10062800fbff32000080fa00000006000000fa001c
:10063800f0012000001688001000210040168800f4
:1006480000ff200010188800113a8000f0fb2f00ee
:1006580000816000600420007105200023742000e0
:100668008049780081497800824978000134800007
:10067800f00f2c008080600000c020000100700096
:10068800003488001134800000fc2f0000806000d6
:10069800d000b30010348800113a80000004200014
:1006a80001017000600420007105200023742000ff
:1006b800804978008149780082497800c422ef0097
:1006c800cc22ef000080fa00000006000000fa00cb
:1006d8000183a800001880000000a1000010a100fc
:1006e8000020a000001888000103a90000e3a90069
:1006f80000c3a90000a3a9000083a9000203a90060
:100708000223a9000243a9000263a900511880002e
:1007180000fe2f00008060000010a0005018880024
:1007280051188000f00f2e0080806000002020000b
:100738000100700050188800d006800000c0a0009a
:1007480000d0a00000e0a000d006880091e0a90039
:10075800a1e0a80001e3a8000080fa00000006005c
:100768000000fa0081e0a800700580000000a000e9
:100778000010a1000020a0007005880090058000ee
:100788000040a1000050a1000060a0009005880072
:100798008680a90087a0a9008220a9008240a9001c
:1007a8009680a80097a0a9000080fa000000060023
:1007b8000200fa00004f78001e00fb00e10f500015
:1007c8000e003200e10f500003003c000000e00082
:1007d8000600320015003700e20f50000b0032000f
:1007e800e30f50000d0032001000370000198000a0
:1007f80000004000601688000c00370010198000c7
:1008080000004000601688000800370020198000aa
:10081800000040006016880004003700301980008e
:100828000000400060168800000000000080fa0008
:10083800000006000000fa0045ff07007bff0700e4
:10084800a2ff0700c6ff07000500370000000000f0
:10085800030037000000000001003700000000001e
:100868005116800000802000008060000000e00039
:10087800f6ff3a0010168000700060000000e000eb
:1008880007003a0010168000680060000000e000d1
:1008980003003a000040eb00c5ff070022003700c4
:1008a80010168000700060000000e00007003a00a9
:1008b80010168000680060000000e00003003200ad
:1008c80010c0b300baff07001700370010168000e9
:1008d800700060000000e000070032001016800081
:1008e800680060000000e00003003a0020c0b30088
:1008f800afff07000c003700101680007000600082
:100908000000e000d3ff320010168000680060008d
:100918000000e000d1ff320030c0b300a4ff0700a0
:100928009680a800ceff3700cdff37000000fa0000
:10093800cd62a90091e0a9000080fa0000400600fd
:100948000000fa009680a900cd62a8000143a80023
:100958000143a9008680a9000080fa000040060033
:100968000000fa0087a0a9000080fa0000400600f5
:020000040000fa
:04097800be04800039
:020000040000fa
:04097c000000000077
:020000040000fa
:0200000401f009
:04000000ffff0000fe
:020000040000fa
:0200000401f009
:04000800ffff0000f6
:020000040000fa
:0200000401f009
:04000c0078ffff007a
:020000040000fa
:0200000401f009
:040010007bffff0073
:020000040000fa
:0200000401f009
:040014007fffff006b
:020000040000fa
:0200000401f009
:04001800ffffff00e7
:020000040000fa
:0200000401f009
:04001c00ddffff0005
:00000001FF
